{
	"data": {
		"bytecode": {
			"linkReferences": {},
			"object": "6111ef610026600b82828239805160001a60731461001957fe5b30600052607381538281f3fe730000000000000000000000000000000000000000301460806040526004361061009d5760003560e01c80637559d550116100705780637559d550146102485780638ba5ceeb146102a5578063ad69caa514610319578063c4371a1c1461036f578063c5e45aa4146103d65761009d565b80631b54f824146100a2578063364b62d5146100ee57806337103a671461015f5780635bf11ed3146101cd575b600080fd5b6100d8600480360360408110156100b857600080fd5b810190808035906020019092919080359060200190929190505050610451565b6040518082815260200191505060405180910390f35b610142600480360360a081101561010457600080fd5b81019080803590602001909291908035906020019092919080359060200190929190803590602001909291908035906020019092919050505061054b565b604051808381526020018281526020019250505060405180910390f35b6101b3600480360360a081101561017557600080fd5b810190808035906020019092919080359060200190929190803590602001909291908035906020019092919080359060200190929190505050610585565b604051808215151515815260200191505060405180910390f35b61022b600480360360c08110156101e357600080fd5b81019080803590602001909291908035906020019092919080359060200190929190803590602001909291908035906020019092919080359060200190929190505050610627565b604051808381526020018281526020019250505060405180910390f35b6102886004803603606081101561025e57600080fd5b8101908080359060200190929190803590602001909291908035906020019092919050505061065b565b604051808381526020018281526020019250505060405180910390f35b6102fc600480360360a08110156102bb57600080fd5b81019080803560ff16906020019092919080359060200190929190803590602001909291908035906020019092919080359060200190929190505050610677565b604051808381526020018281526020019250505060405180910390f35b6103596004803603606081101561032f57600080fd5b810190808035906020019092919080359060200190929190803590602001909291905050506106df565b6040518082815260200191505060405180910390f35b6103b96004803603608081101561038557600080fd5b810190808035906020019092919080359060200190929190803590602001909291908035906020019092919050505061080d565b604051808381526020018281526020019250505060405180910390f35b610434600480360360c08110156103ec57600080fd5b81019080803590602001909291908035906020019092919080359060200190929190803590602001909291908035906020019092919080359060200190929190505050610868565b604051808381526020018281526020019250505060405180910390f35b60008083148061046057508183145b8061046b5750600082145b156104de576040517f08c379a000000000000000000000000000000000000000000000000000000000815260040180806020018281038252600e8152602001807f496e76616c6964206e756d62657200000000000000000000000000000000000081525060200191505060405180910390fd5b60008090506000600190506000849050600086905060005b6000821461053d5781838161050757fe5b04905083878061051357fe5b888061051b57fe5b86840989038708809550819650505081828202840380935081945050506104f6565b849550505050505092915050565b60008060008060006105628a8a8a60018b8b6108dd565b9250925092506105748383838961080d565b945094505050509550959350505050565b6000856000148061059557508186145b806105a05750846000145b806105aa57508185145b156105b8576000905061061e565b600082806105c257fe5b8687099050600083806105d157fe5b8885806105da57fe5b8a8b09099050600086146106005783806105f057fe5b84806105f857fe5b878a09820890505b6000851461061657838061061057fe5b85820890505b808214925050505b95945050505050565b60008060008061063888888761065b565b9150915061064a8a8a84848a8a610868565b935093505050965096945050505050565b60008084838585038161066a57fe5b0691509150935093915050565b6000806000838061068457fe5b848061068c57fe5b86868061069557fe5b898b090885806106a157fe5b86806106a957fe5b8a8b098a0908905060006106cb82600460018801816106c457fe5b04876106df565b905081819350935050509550959350505050565b6000808414156106f25760009050610806565b60008314156107045760019050610806565b600082141561077b576040517f08c379a000000000000000000000000000000000000000000000000000000000815260040180806020018281038252600f8152602001807f4d6f64756c7573206973207a65726f000000000000000000000000000000000081525060200191505060405180910390fd5b60006001905060007f800000000000000000000000000000000000000000000000000000000000000090505b600081111561080057838186161515870a85848509099150836002820486161515870a85848509099150836004820486161515870a85848509099150836008820486161515870a858485090991506010810490506107a7565b81925050505b9392505050565b600080600061081c8585610451565b90506000848061082857fe5b82830990506000858061083757fe5b828a0990506000868061084657fe5b878061084e57fe5b8486098a0990508181955095505050505094509492505050565b600080600080905060008090506000809050888b14156108a1576108908b8b60018a8a610a71565b8093508194508295505050506108bf565b6108b28b8b60018c8c60018c610c3b565b8093508194508295505050505b6108cb8383838961080d565b94509450505050965096945050505050565b6000806000808990506108ee611176565b89816000600381106108fc57fe5b602002018181525050888160016003811061091357fe5b602002018181525050878160026003811061092a57fe5b6020020181815250506000809050600080905060006001905060008e141561095f578282829750975097505050505050610a65565b5b60008514610a5657600060018616146109c2576109b58383838760006003811061098657fe5b60200201518860016003811061099857fe5b6020020151896002600381106109aa57fe5b60200201518f610c3b565b8093508194508295505050505b600285816109cc57fe5b049450610a0f846000600381106109df57fe5b6020020151856001600381106109f157fe5b602002015186600260038110610a0357fe5b60200201518d8d610a71565b86600060038110610a1c57fe5b6020020187600160038110610a2d57fe5b6020020188600260038110610a3e57fe5b60200201838152508381525083815250505050610960565b82828297509750975050505050505b96509650969350505050565b600080600080861415610a8c57878787925092509250610c30565b610a94611176565b8480610a9c57fe5b898a0981600060038110610aac57fe5b6020020181815250508480610abd57fe5b88890981600160038110610acd57fe5b6020020181815250508480610ade57fe5b87880981600260038110610aee57fe5b60200201818152505060008580610b0157fe5b8680610b0957fe5b83600160038110610b1657fe5b60200201518c09600409905060008680610b2c57fe5b8780610b3457fe5b8880610b3c57fe5b85600260038110610b4957fe5b602002015186600260038110610b5b57fe5b6020020151098a098880610b6b57fe5b85600060038110610b7857fe5b602002015160030908905060008780610b8d57fe5b8880610b9557fe5b84850889038980610ba257fe5b84850908905060008880610bb257fe5b8980610bba57fe5b8a80610bc257fe5b87600160038110610bcf57fe5b602002015188600160038110610be157fe5b6020020151096008098a038a80610bf457fe5b8b80610bfc57fe5b858d038808860908905060008980610c1057fe5b8a80610c1857fe5b8d8f0960020990508282829850985098505050505050505b955095509592505050565b6000806000808a148015610c4f5750600089145b15610c6257868686925092509250611169565b600087148015610c725750600086145b15610c8557898989925092509250611169565b610c8d611198565b8480610c9557fe5b898a0981600060048110610ca557fe5b6020020181815250508480610cb657fe5b81600060048110610cc357fe5b60200201518a0981600160048110610cd757fe5b6020020181815250508480610ce857fe5b86870981600260048110610cf857fe5b6020020181815250508480610d0957fe5b81600260048110610d1657fe5b6020020151870981600360048110610d2a57fe5b60200201818152505060405180608001604052808680610d4657fe5b83600260048110610d5357fe5b60200201518e0981526020018680610d6757fe5b83600360048110610d7457fe5b60200201518d0981526020018680610d8857fe5b83600060048110610d9557fe5b60200201518b0981526020018680610da957fe5b83600160048110610db657fe5b60200201518a09815250905080600260048110610dcf57fe5b602002015181600060048110610de157fe5b60200201511415610ef15780600360048110610df957fe5b602002015181600160048110610e0b57fe5b602002015114610e83576040517f08c379a000000000000000000000000000000000000000000000000000000000815260040180806020018281038252600a8152602001807f57726f6e6720646174610000000000000000000000000000000000000000000081525060200191505060405180910390fd5b6040517f08c379a00000000000000000000000000000000000000000000000000000000081526004018080602001828103825260128152602001807f55736520646f75626c6520696e7374656164000000000000000000000000000081525060200191505060405180910390fd5b610ef9611198565b8580610f0157fe5b82600060048110610f0e57fe5b6020020151870383600260048110610f2257fe5b60200201510881600060048110610f3557fe5b6020020181815250508580610f4657fe5b82600160048110610f5357fe5b6020020151870383600360048110610f6757fe5b60200201510881600160048110610f7a57fe5b6020020181815250508580610f8b57fe5b81600060048110610f9857fe5b602002015182600060048110610faa57fe5b60200201510981600260048110610fbd57fe5b6020020181815250508580610fce57fe5b81600060048110610fdb57fe5b602002015182600260048110610fed57fe5b6020020151098160036004811061100057fe5b6020020181815250506000868061101357fe5b8260036004811061102057fe5b60200201518803888061102f57fe5b8460016004811061103c57fe5b60200201518560016004811061104e57fe5b602002015109089050868061105f57fe5b878061106757fe5b888061106f57fe5b8460026004811061107c57fe5b60200201518660006004811061108e57fe5b602002015109600209880382089050600087806110a757fe5b88806110af57fe5b838a038a806110ba57fe5b866002600481106110c757fe5b6020020151886000600481106110d957fe5b60200201510908846001600481106110ed57fe5b602002015109905087806110fd57fe5b888061110557fe5b8460036004811061111257fe5b60200201518660016004811061112457fe5b6020020151098903820890506000888061113a57fe5b898061114257fe5b8b8f098560006004811061115257fe5b602002015109905082828297509750975050505050505b9750975097945050505050565b6040518060600160405280600390602082028038833980820191505090505090565b604051806080016040528060049060208202803883398082019150509050509056fea265627a7a723158204a1e52f0b108739556093080d0cc53532052821c24a92a816d17cf0ab48ba30f64736f6c63430005110032",
			"opcodes": "PUSH2 0x11EF PUSH2 0x26 PUSH1 0xB DUP3 DUP3 DUP3 CODECOPY DUP1 MLOAD PUSH1 0x0 BYTE PUSH1 0x73 EQ PUSH2 0x19 JUMPI INVALID JUMPDEST ADDRESS PUSH1 0x0 MSTORE PUSH1 0x73 DUP2 MSTORE8 DUP3 DUP2 RETURN INVALID PUSH20 0x0 ADDRESS EQ PUSH1 0x80 PUSH1 0x40 MSTORE PUSH1 0x4 CALLDATASIZE LT PUSH2 0x9D JUMPI PUSH1 0x0 CALLDATALOAD PUSH1 0xE0 SHR DUP1 PUSH4 0x7559D550 GT PUSH2 0x70 JUMPI DUP1 PUSH4 0x7559D550 EQ PUSH2 0x248 JUMPI DUP1 PUSH4 0x8BA5CEEB EQ PUSH2 0x2A5 JUMPI DUP1 PUSH4 0xAD69CAA5 EQ PUSH2 0x319 JUMPI DUP1 PUSH4 0xC4371A1C EQ PUSH2 0x36F JUMPI DUP1 PUSH4 0xC5E45AA4 EQ PUSH2 0x3D6 JUMPI PUSH2 0x9D JUMP JUMPDEST DUP1 PUSH4 0x1B54F824 EQ PUSH2 0xA2 JUMPI DUP1 PUSH4 0x364B62D5 EQ PUSH2 0xEE JUMPI DUP1 PUSH4 0x37103A67 EQ PUSH2 0x15F JUMPI DUP1 PUSH4 0x5BF11ED3 EQ PUSH2 0x1CD JUMPI JUMPDEST PUSH1 0x0 DUP1 REVERT JUMPDEST PUSH2 0xD8 PUSH1 0x4 DUP1 CALLDATASIZE SUB PUSH1 0x40 DUP2 LT ISZERO PUSH2 0xB8 JUMPI PUSH1 0x0 DUP1 REVERT JUMPDEST DUP2 ADD SWAP1 DUP1 DUP1 CALLDATALOAD SWAP1 PUSH1 0x20 ADD SWAP1 SWAP3 SWAP2 SWAP1 DUP1 CALLDATALOAD SWAP1 PUSH1 0x20 ADD SWAP1 SWAP3 SWAP2 SWAP1 POP POP POP PUSH2 0x451 JUMP JUMPDEST PUSH1 0x40 MLOAD DUP1 DUP3 DUP2 MSTORE PUSH1 0x20 ADD SWAP2 POP POP PUSH1 0x40 MLOAD DUP1 SWAP2 SUB SWAP1 RETURN JUMPDEST PUSH2 0x142 PUSH1 0x4 DUP1 CALLDATASIZE SUB PUSH1 0xA0 DUP2 LT ISZERO PUSH2 0x104 JUMPI PUSH1 0x0 DUP1 REVERT JUMPDEST DUP2 ADD SWAP1 DUP1 DUP1 CALLDATALOAD SWAP1 PUSH1 0x20 ADD SWAP1 SWAP3 SWAP2 SWAP1 DUP1 CALLDATALOAD SWAP1 PUSH1 0x20 ADD SWAP1 SWAP3 SWAP2 SWAP1 DUP1 CALLDATALOAD SWAP1 PUSH1 0x20 ADD SWAP1 SWAP3 SWAP2 SWAP1 DUP1 CALLDATALOAD SWAP1 PUSH1 0x20 ADD SWAP1 SWAP3 SWAP2 SWAP1 DUP1 CALLDATALOAD SWAP1 PUSH1 0x20 ADD SWAP1 SWAP3 SWAP2 SWAP1 POP POP POP PUSH2 0x54B JUMP JUMPDEST PUSH1 0x40 MLOAD DUP1 DUP4 DUP2 MSTORE PUSH1 0x20 ADD DUP3 DUP2 MSTORE PUSH1 0x20 ADD SWAP3 POP POP POP PUSH1 0x40 MLOAD DUP1 SWAP2 SUB SWAP1 RETURN JUMPDEST PUSH2 0x1B3 PUSH1 0x4 DUP1 CALLDATASIZE SUB PUSH1 0xA0 DUP2 LT ISZERO PUSH2 0x175 JUMPI PUSH1 0x0 DUP1 REVERT JUMPDEST DUP2 ADD SWAP1 DUP1 DUP1 CALLDATALOAD SWAP1 PUSH1 0x20 ADD SWAP1 SWAP3 SWAP2 SWAP1 DUP1 CALLDATALOAD SWAP1 PUSH1 0x20 ADD SWAP1 SWAP3 SWAP2 SWAP1 DUP1 CALLDATALOAD SWAP1 PUSH1 0x20 ADD SWAP1 SWAP3 SWAP2 SWAP1 DUP1 CALLDATALOAD SWAP1 PUSH1 0x20 ADD SWAP1 SWAP3 SWAP2 SWAP1 DUP1 CALLDATALOAD SWAP1 PUSH1 0x20 ADD SWAP1 SWAP3 SWAP2 SWAP1 POP POP POP PUSH2 0x585 JUMP JUMPDEST PUSH1 0x40 MLOAD DUP1 DUP3 ISZERO ISZERO ISZERO ISZERO DUP2 MSTORE PUSH1 0x20 ADD SWAP2 POP POP PUSH1 0x40 MLOAD DUP1 SWAP2 SUB SWAP1 RETURN JUMPDEST PUSH2 0x22B PUSH1 0x4 DUP1 CALLDATASIZE SUB PUSH1 0xC0 DUP2 LT ISZERO PUSH2 0x1E3 JUMPI PUSH1 0x0 DUP1 REVERT JUMPDEST DUP2 ADD SWAP1 DUP1 DUP1 CALLDATALOAD SWAP1 PUSH1 0x20 ADD SWAP1 SWAP3 SWAP2 SWAP1 DUP1 CALLDATALOAD SWAP1 PUSH1 0x20 ADD SWAP1 SWAP3 SWAP2 SWAP1 DUP1 CALLDATALOAD SWAP1 PUSH1 0x20 ADD SWAP1 SWAP3 SWAP2 SWAP1 DUP1 CALLDATALOAD SWAP1 PUSH1 0x20 ADD SWAP1 SWAP3 SWAP2 SWAP1 DUP1 CALLDATALOAD SWAP1 PUSH1 0x20 ADD SWAP1 SWAP3 SWAP2 SWAP1 DUP1 CALLDATALOAD SWAP1 PUSH1 0x20 ADD SWAP1 SWAP3 SWAP2 SWAP1 POP POP POP PUSH2 0x627 JUMP JUMPDEST PUSH1 0x40 MLOAD DUP1 DUP4 DUP2 MSTORE PUSH1 0x20 ADD DUP3 DUP2 MSTORE PUSH1 0x20 ADD SWAP3 POP POP POP PUSH1 0x40 MLOAD DUP1 SWAP2 SUB SWAP1 RETURN JUMPDEST PUSH2 0x288 PUSH1 0x4 DUP1 CALLDATASIZE SUB PUSH1 0x60 DUP2 LT ISZERO PUSH2 0x25E JUMPI PUSH1 0x0 DUP1 REVERT JUMPDEST DUP2 ADD SWAP1 DUP1 DUP1 CALLDATALOAD SWAP1 PUSH1 0x20 ADD SWAP1 SWAP3 SWAP2 SWAP1 DUP1 CALLDATALOAD SWAP1 PUSH1 0x20 ADD SWAP1 SWAP3 SWAP2 SWAP1 DUP1 CALLDATALOAD SWAP1 PUSH1 0x20 ADD SWAP1 SWAP3 SWAP2 SWAP1 POP POP POP PUSH2 0x65B JUMP JUMPDEST PUSH1 0x40 MLOAD DUP1 DUP4 DUP2 MSTORE PUSH1 0x20 ADD DUP3 DUP2 MSTORE PUSH1 0x20 ADD SWAP3 POP POP POP PUSH1 0x40 MLOAD DUP1 SWAP2 SUB SWAP1 RETURN JUMPDEST PUSH2 0x2FC PUSH1 0x4 DUP1 CALLDATASIZE SUB PUSH1 0xA0 DUP2 LT ISZERO PUSH2 0x2BB JUMPI PUSH1 0x0 DUP1 REVERT JUMPDEST DUP2 ADD SWAP1 DUP1 DUP1 CALLDATALOAD PUSH1 0xFF AND SWAP1 PUSH1 0x20 ADD SWAP1 SWAP3 SWAP2 SWAP1 DUP1 CALLDATALOAD SWAP1 PUSH1 0x20 ADD SWAP1 SWAP3 SWAP2 SWAP1 DUP1 CALLDATALOAD SWAP1 PUSH1 0x20 ADD SWAP1 SWAP3 SWAP2 SWAP1 DUP1 CALLDATALOAD SWAP1 PUSH1 0x20 ADD SWAP1 SWAP3 SWAP2 SWAP1 DUP1 CALLDATALOAD SWAP1 PUSH1 0x20 ADD SWAP1 SWAP3 SWAP2 SWAP1 POP POP POP PUSH2 0x677 JUMP JUMPDEST PUSH1 0x40 MLOAD DUP1 DUP4 DUP2 MSTORE PUSH1 0x20 ADD DUP3 DUP2 MSTORE PUSH1 0x20 ADD SWAP3 POP POP POP PUSH1 0x40 MLOAD DUP1 SWAP2 SUB SWAP1 RETURN JUMPDEST PUSH2 0x359 PUSH1 0x4 DUP1 CALLDATASIZE SUB PUSH1 0x60 DUP2 LT ISZERO PUSH2 0x32F JUMPI PUSH1 0x0 DUP1 REVERT JUMPDEST DUP2 ADD SWAP1 DUP1 DUP1 CALLDATALOAD SWAP1 PUSH1 0x20 ADD SWAP1 SWAP3 SWAP2 SWAP1 DUP1 CALLDATALOAD SWAP1 PUSH1 0x20 ADD SWAP1 SWAP3 SWAP2 SWAP1 DUP1 CALLDATALOAD SWAP1 PUSH1 0x20 ADD SWAP1 SWAP3 SWAP2 SWAP1 POP POP POP PUSH2 0x6DF JUMP JUMPDEST PUSH1 0x40 MLOAD DUP1 DUP3 DUP2 MSTORE PUSH1 0x20 ADD SWAP2 POP POP PUSH1 0x40 MLOAD DUP1 SWAP2 SUB SWAP1 RETURN JUMPDEST PUSH2 0x3B9 PUSH1 0x4 DUP1 CALLDATASIZE SUB PUSH1 0x80 DUP2 LT ISZERO PUSH2 0x385 JUMPI PUSH1 0x0 DUP1 REVERT JUMPDEST DUP2 ADD SWAP1 DUP1 DUP1 CALLDATALOAD SWAP1 PUSH1 0x20 ADD SWAP1 SWAP3 SWAP2 SWAP1 DUP1 CALLDATALOAD SWAP1 PUSH1 0x20 ADD SWAP1 SWAP3 SWAP2 SWAP1 DUP1 CALLDATALOAD SWAP1 PUSH1 0x20 ADD SWAP1 SWAP3 SWAP2 SWAP1 DUP1 CALLDATALOAD SWAP1 PUSH1 0x20 ADD SWAP1 SWAP3 SWAP2 SWAP1 POP POP POP PUSH2 0x80D JUMP JUMPDEST PUSH1 0x40 MLOAD DUP1 DUP4 DUP2 MSTORE PUSH1 0x20 ADD DUP3 DUP2 MSTORE PUSH1 0x20 ADD SWAP3 POP POP POP PUSH1 0x40 MLOAD DUP1 SWAP2 SUB SWAP1 RETURN JUMPDEST PUSH2 0x434 PUSH1 0x4 DUP1 CALLDATASIZE SUB PUSH1 0xC0 DUP2 LT ISZERO PUSH2 0x3EC JUMPI PUSH1 0x0 DUP1 REVERT JUMPDEST DUP2 ADD SWAP1 DUP1 DUP1 CALLDATALOAD SWAP1 PUSH1 0x20 ADD SWAP1 SWAP3 SWAP2 SWAP1 DUP1 CALLDATALOAD SWAP1 PUSH1 0x20 ADD SWAP1 SWAP3 SWAP2 SWAP1 DUP1 CALLDATALOAD SWAP1 PUSH1 0x20 ADD SWAP1 SWAP3 SWAP2 SWAP1 DUP1 CALLDATALOAD SWAP1 PUSH1 0x20 ADD SWAP1 SWAP3 SWAP2 SWAP1 DUP1 CALLDATALOAD SWAP1 PUSH1 0x20 ADD SWAP1 SWAP3 SWAP2 SWAP1 DUP1 CALLDATALOAD SWAP1 PUSH1 0x20 ADD SWAP1 SWAP3 SWAP2 SWAP1 POP POP POP PUSH2 0x868 JUMP JUMPDEST PUSH1 0x40 MLOAD DUP1 DUP4 DUP2 MSTORE PUSH1 0x20 ADD DUP3 DUP2 MSTORE PUSH1 0x20 ADD SWAP3 POP POP POP PUSH1 0x40 MLOAD DUP1 SWAP2 SUB SWAP1 RETURN JUMPDEST PUSH1 0x0 DUP1 DUP4 EQ DUP1 PUSH2 0x460 JUMPI POP DUP2 DUP4 EQ JUMPDEST DUP1 PUSH2 0x46B JUMPI POP PUSH1 0x0 DUP3 EQ JUMPDEST ISZERO PUSH2 0x4DE JUMPI PUSH1 0x40 MLOAD PUSH32 0x8C379A000000000000000000000000000000000000000000000000000000000 DUP2 MSTORE PUSH1 0x4 ADD DUP1 DUP1 PUSH1 0x20 ADD DUP3 DUP2 SUB DUP3 MSTORE PUSH1 0xE DUP2 MSTORE PUSH1 0x20 ADD DUP1 PUSH32 0x496E76616C6964206E756D626572000000000000000000000000000000000000 DUP2 MSTORE POP PUSH1 0x20 ADD SWAP2 POP POP PUSH1 0x40 MLOAD DUP1 SWAP2 SUB SWAP1 REVERT JUMPDEST PUSH1 0x0 DUP1 SWAP1 POP PUSH1 0x0 PUSH1 0x1 SWAP1 POP PUSH1 0x0 DUP5 SWAP1 POP PUSH1 0x0 DUP7 SWAP1 POP PUSH1 0x0 JUMPDEST PUSH1 0x0 DUP3 EQ PUSH2 0x53D JUMPI DUP2 DUP4 DUP2 PUSH2 0x507 JUMPI INVALID JUMPDEST DIV SWAP1 POP DUP4 DUP8 DUP1 PUSH2 0x513 JUMPI INVALID JUMPDEST DUP9 DUP1 PUSH2 0x51B JUMPI INVALID JUMPDEST DUP7 DUP5 MULMOD DUP10 SUB DUP8 ADDMOD DUP1 SWAP6 POP DUP2 SWAP7 POP POP POP DUP2 DUP3 DUP3 MUL DUP5 SUB DUP1 SWAP4 POP DUP2 SWAP5 POP POP POP PUSH2 0x4F6 JUMP JUMPDEST DUP5 SWAP6 POP POP POP POP POP POP SWAP3 SWAP2 POP POP JUMP JUMPDEST PUSH1 0x0 DUP1 PUSH1 0x0 DUP1 PUSH1 0x0 PUSH2 0x562 DUP11 DUP11 DUP11 PUSH1 0x1 DUP12 DUP12 PUSH2 0x8DD JUMP JUMPDEST SWAP3 POP SWAP3 POP SWAP3 POP PUSH2 0x574 DUP4 DUP4 DUP4 DUP10 PUSH2 0x80D JUMP JUMPDEST SWAP5 POP SWAP5 POP POP POP POP SWAP6 POP SWAP6 SWAP4 POP POP POP POP JUMP JUMPDEST PUSH1 0x0 DUP6 PUSH1 0x0 EQ DUP1 PUSH2 0x595 JUMPI POP DUP2 DUP7 EQ JUMPDEST DUP1 PUSH2 0x5A0 JUMPI POP DUP5 PUSH1 0x0 EQ JUMPDEST DUP1 PUSH2 0x5AA JUMPI POP DUP2 DUP6 EQ JUMPDEST ISZERO PUSH2 0x5B8 JUMPI PUSH1 0x0 SWAP1 POP PUSH2 0x61E JUMP JUMPDEST PUSH1 0x0 DUP3 DUP1 PUSH2 0x5C2 JUMPI INVALID JUMPDEST DUP7 DUP8 MULMOD SWAP1 POP PUSH1 0x0 DUP4 DUP1 PUSH2 0x5D1 JUMPI INVALID JUMPDEST DUP9 DUP6 DUP1 PUSH2 0x5DA JUMPI INVALID JUMPDEST DUP11 DUP12 MULMOD MULMOD SWAP1 POP PUSH1 0x0 DUP7 EQ PUSH2 0x600 JUMPI DUP4 DUP1 PUSH2 0x5F0 JUMPI INVALID JUMPDEST DUP5 DUP1 PUSH2 0x5F8 JUMPI INVALID JUMPDEST DUP8 DUP11 MULMOD DUP3 ADDMOD SWAP1 POP JUMPDEST PUSH1 0x0 DUP6 EQ PUSH2 0x616 JUMPI DUP4 DUP1 PUSH2 0x610 JUMPI INVALID JUMPDEST DUP6 DUP3 ADDMOD SWAP1 POP JUMPDEST DUP1 DUP3 EQ SWAP3 POP POP POP JUMPDEST SWAP6 SWAP5 POP POP POP POP POP JUMP JUMPDEST PUSH1 0x0 DUP1 PUSH1 0x0 DUP1 PUSH2 0x638 DUP9 DUP9 DUP8 PUSH2 0x65B JUMP JUMPDEST SWAP2 POP SWAP2 POP PUSH2 0x64A DUP11 DUP11 DUP5 DUP5 DUP11 DUP11 PUSH2 0x868 JUMP JUMPDEST SWAP4 POP SWAP4 POP POP POP SWAP7 POP SWAP7 SWAP5 POP POP POP POP POP JUMP JUMPDEST PUSH1 0x0 DUP1 DUP5 DUP4 DUP6 DUP6 SUB DUP2 PUSH2 0x66A JUMPI INVALID JUMPDEST MOD SWAP2 POP SWAP2 POP SWAP4 POP SWAP4 SWAP2 POP POP JUMP JUMPDEST PUSH1 0x0 DUP1 PUSH1 0x0 DUP4 DUP1 PUSH2 0x684 JUMPI INVALID JUMPDEST DUP5 DUP1 PUSH2 0x68C JUMPI INVALID JUMPDEST DUP7 DUP7 DUP1 PUSH2 0x695 JUMPI INVALID JUMPDEST DUP10 DUP12 MULMOD ADDMOD DUP6 DUP1 PUSH2 0x6A1 JUMPI INVALID JUMPDEST DUP7 DUP1 PUSH2 0x6A9 JUMPI INVALID JUMPDEST DUP11 DUP12 MULMOD DUP11 MULMOD ADDMOD SWAP1 POP PUSH1 0x0 PUSH2 0x6CB DUP3 PUSH1 0x4 PUSH1 0x1 DUP9 ADD DUP2 PUSH2 0x6C4 JUMPI INVALID JUMPDEST DIV DUP8 PUSH2 0x6DF JUMP JUMPDEST SWAP1 POP DUP2 DUP2 SWAP4 POP SWAP4 POP POP POP SWAP6 POP SWAP6 SWAP4 POP POP POP POP JUMP JUMPDEST PUSH1 0x0 DUP1 DUP5 EQ ISZERO PUSH2 0x6F2 JUMPI PUSH1 0x0 SWAP1 POP PUSH2 0x806 JUMP JUMPDEST PUSH1 0x0 DUP4 EQ ISZERO PUSH2 0x704 JUMPI PUSH1 0x1 SWAP1 POP PUSH2 0x806 JUMP JUMPDEST PUSH1 0x0 DUP3 EQ ISZERO PUSH2 0x77B JUMPI PUSH1 0x40 MLOAD PUSH32 0x8C379A000000000000000000000000000000000000000000000000000000000 DUP2 MSTORE PUSH1 0x4 ADD DUP1 DUP1 PUSH1 0x20 ADD DUP3 DUP2 SUB DUP3 MSTORE PUSH1 0xF DUP2 MSTORE PUSH1 0x20 ADD DUP1 PUSH32 0x4D6F64756C7573206973207A65726F0000000000000000000000000000000000 DUP2 MSTORE POP PUSH1 0x20 ADD SWAP2 POP POP PUSH1 0x40 MLOAD DUP1 SWAP2 SUB SWAP1 REVERT JUMPDEST PUSH1 0x0 PUSH1 0x1 SWAP1 POP PUSH1 0x0 PUSH32 0x8000000000000000000000000000000000000000000000000000000000000000 SWAP1 POP JUMPDEST PUSH1 0x0 DUP2 GT ISZERO PUSH2 0x800 JUMPI DUP4 DUP2 DUP7 AND ISZERO ISZERO DUP8 EXP DUP6 DUP5 DUP6 MULMOD MULMOD SWAP2 POP DUP4 PUSH1 0x2 DUP3 DIV DUP7 AND ISZERO ISZERO DUP8 EXP DUP6 DUP5 DUP6 MULMOD MULMOD SWAP2 POP DUP4 PUSH1 0x4 DUP3 DIV DUP7 AND ISZERO ISZERO DUP8 EXP DUP6 DUP5 DUP6 MULMOD MULMOD SWAP2 POP DUP4 PUSH1 0x8 DUP3 DIV DUP7 AND ISZERO ISZERO DUP8 EXP DUP6 DUP5 DUP6 MULMOD MULMOD SWAP2 POP PUSH1 0x10 DUP2 DIV SWAP1 POP PUSH2 0x7A7 JUMP JUMPDEST DUP2 SWAP3 POP POP POP JUMPDEST SWAP4 SWAP3 POP POP POP JUMP JUMPDEST PUSH1 0x0 DUP1 PUSH1 0x0 PUSH2 0x81C DUP6 DUP6 PUSH2 0x451 JUMP JUMPDEST SWAP1 POP PUSH1 0x0 DUP5 DUP1 PUSH2 0x828 JUMPI INVALID JUMPDEST DUP3 DUP4 MULMOD SWAP1 POP PUSH1 0x0 DUP6 DUP1 PUSH2 0x837 JUMPI INVALID JUMPDEST DUP3 DUP11 MULMOD SWAP1 POP PUSH1 0x0 DUP7 DUP1 PUSH2 0x846 JUMPI INVALID JUMPDEST DUP8 DUP1 PUSH2 0x84E JUMPI INVALID JUMPDEST DUP5 DUP7 MULMOD DUP11 MULMOD SWAP1 POP DUP2 DUP2 SWAP6 POP SWAP6 POP POP POP POP POP SWAP5 POP SWAP5 SWAP3 POP POP POP JUMP JUMPDEST PUSH1 0x0 DUP1 PUSH1 0x0 DUP1 SWAP1 POP PUSH1 0x0 DUP1 SWAP1 POP PUSH1 0x0 DUP1 SWAP1 POP DUP9 DUP12 EQ ISZERO PUSH2 0x8A1 JUMPI PUSH2 0x890 DUP12 DUP12 PUSH1 0x1 DUP11 DUP11 PUSH2 0xA71 JUMP JUMPDEST DUP1 SWAP4 POP DUP2 SWAP5 POP DUP3 SWAP6 POP POP POP POP PUSH2 0x8BF JUMP JUMPDEST PUSH2 0x8B2 DUP12 DUP12 PUSH1 0x1 DUP13 DUP13 PUSH1 0x1 DUP13 PUSH2 0xC3B JUMP JUMPDEST DUP1 SWAP4 POP DUP2 SWAP5 POP DUP3 SWAP6 POP POP POP POP JUMPDEST PUSH2 0x8CB DUP4 DUP4 DUP4 DUP10 PUSH2 0x80D JUMP JUMPDEST SWAP5 POP SWAP5 POP POP POP POP SWAP7 POP SWAP7 SWAP5 POP POP POP POP POP JUMP JUMPDEST PUSH1 0x0 DUP1 PUSH1 0x0 DUP1 DUP10 SWAP1 POP PUSH2 0x8EE PUSH2 0x1176 JUMP JUMPDEST DUP10 DUP2 PUSH1 0x0 PUSH1 0x3 DUP2 LT PUSH2 0x8FC JUMPI INVALID JUMPDEST PUSH1 0x20 MUL ADD DUP2 DUP2 MSTORE POP POP DUP9 DUP2 PUSH1 0x1 PUSH1 0x3 DUP2 LT PUSH2 0x913 JUMPI INVALID JUMPDEST PUSH1 0x20 MUL ADD DUP2 DUP2 MSTORE POP POP DUP8 DUP2 PUSH1 0x2 PUSH1 0x3 DUP2 LT PUSH2 0x92A JUMPI INVALID JUMPDEST PUSH1 0x20 MUL ADD DUP2 DUP2 MSTORE POP POP PUSH1 0x0 DUP1 SWAP1 POP PUSH1 0x0 DUP1 SWAP1 POP PUSH1 0x0 PUSH1 0x1 SWAP1 POP PUSH1 0x0 DUP15 EQ ISZERO PUSH2 0x95F JUMPI DUP3 DUP3 DUP3 SWAP8 POP SWAP8 POP SWAP8 POP POP POP POP POP POP PUSH2 0xA65 JUMP JUMPDEST JUMPDEST PUSH1 0x0 DUP6 EQ PUSH2 0xA56 JUMPI PUSH1 0x0 PUSH1 0x1 DUP7 AND EQ PUSH2 0x9C2 JUMPI PUSH2 0x9B5 DUP4 DUP4 DUP4 DUP8 PUSH1 0x0 PUSH1 0x3 DUP2 LT PUSH2 0x986 JUMPI INVALID JUMPDEST PUSH1 0x20 MUL ADD MLOAD DUP9 PUSH1 0x1 PUSH1 0x3 DUP2 LT PUSH2 0x998 JUMPI INVALID JUMPDEST PUSH1 0x20 MUL ADD MLOAD DUP10 PUSH1 0x2 PUSH1 0x3 DUP2 LT PUSH2 0x9AA JUMPI INVALID JUMPDEST PUSH1 0x20 MUL ADD MLOAD DUP16 PUSH2 0xC3B JUMP JUMPDEST DUP1 SWAP4 POP DUP2 SWAP5 POP DUP3 SWAP6 POP POP POP POP JUMPDEST PUSH1 0x2 DUP6 DUP2 PUSH2 0x9CC JUMPI INVALID JUMPDEST DIV SWAP5 POP PUSH2 0xA0F DUP5 PUSH1 0x0 PUSH1 0x3 DUP2 LT PUSH2 0x9DF JUMPI INVALID JUMPDEST PUSH1 0x20 MUL ADD MLOAD DUP6 PUSH1 0x1 PUSH1 0x3 DUP2 LT PUSH2 0x9F1 JUMPI INVALID JUMPDEST PUSH1 0x20 MUL ADD MLOAD DUP7 PUSH1 0x2 PUSH1 0x3 DUP2 LT PUSH2 0xA03 JUMPI INVALID JUMPDEST PUSH1 0x20 MUL ADD MLOAD DUP14 DUP14 PUSH2 0xA71 JUMP JUMPDEST DUP7 PUSH1 0x0 PUSH1 0x3 DUP2 LT PUSH2 0xA1C JUMPI INVALID JUMPDEST PUSH1 0x20 MUL ADD DUP8 PUSH1 0x1 PUSH1 0x3 DUP2 LT PUSH2 0xA2D JUMPI INVALID JUMPDEST PUSH1 0x20 MUL ADD DUP9 PUSH1 0x2 PUSH1 0x3 DUP2 LT PUSH2 0xA3E JUMPI INVALID JUMPDEST PUSH1 0x20 MUL ADD DUP4 DUP2 MSTORE POP DUP4 DUP2 MSTORE POP DUP4 DUP2 MSTORE POP POP POP POP PUSH2 0x960 JUMP JUMPDEST DUP3 DUP3 DUP3 SWAP8 POP SWAP8 POP SWAP8 POP POP POP POP POP POP JUMPDEST SWAP7 POP SWAP7 POP SWAP7 SWAP4 POP POP POP POP JUMP JUMPDEST PUSH1 0x0 DUP1 PUSH1 0x0 DUP1 DUP7 EQ ISZERO PUSH2 0xA8C JUMPI DUP8 DUP8 DUP8 SWAP3 POP SWAP3 POP SWAP3 POP PUSH2 0xC30 JUMP JUMPDEST PUSH2 0xA94 PUSH2 0x1176 JUMP JUMPDEST DUP5 DUP1 PUSH2 0xA9C JUMPI INVALID JUMPDEST DUP10 DUP11 MULMOD DUP2 PUSH1 0x0 PUSH1 0x3 DUP2 LT PUSH2 0xAAC JUMPI INVALID JUMPDEST PUSH1 0x20 MUL ADD DUP2 DUP2 MSTORE POP POP DUP5 DUP1 PUSH2 0xABD JUMPI INVALID JUMPDEST DUP9 DUP10 MULMOD DUP2 PUSH1 0x1 PUSH1 0x3 DUP2 LT PUSH2 0xACD JUMPI INVALID JUMPDEST PUSH1 0x20 MUL ADD DUP2 DUP2 MSTORE POP POP DUP5 DUP1 PUSH2 0xADE JUMPI INVALID JUMPDEST DUP8 DUP9 MULMOD DUP2 PUSH1 0x2 PUSH1 0x3 DUP2 LT PUSH2 0xAEE JUMPI INVALID JUMPDEST PUSH1 0x20 MUL ADD DUP2 DUP2 MSTORE POP POP PUSH1 0x0 DUP6 DUP1 PUSH2 0xB01 JUMPI INVALID JUMPDEST DUP7 DUP1 PUSH2 0xB09 JUMPI INVALID JUMPDEST DUP4 PUSH1 0x1 PUSH1 0x3 DUP2 LT PUSH2 0xB16 JUMPI INVALID JUMPDEST PUSH1 0x20 MUL ADD MLOAD DUP13 MULMOD PUSH1 0x4 MULMOD SWAP1 POP PUSH1 0x0 DUP7 DUP1 PUSH2 0xB2C JUMPI INVALID JUMPDEST DUP8 DUP1 PUSH2 0xB34 JUMPI INVALID JUMPDEST DUP9 DUP1 PUSH2 0xB3C JUMPI INVALID JUMPDEST DUP6 PUSH1 0x2 PUSH1 0x3 DUP2 LT PUSH2 0xB49 JUMPI INVALID JUMPDEST PUSH1 0x20 MUL ADD MLOAD DUP7 PUSH1 0x2 PUSH1 0x3 DUP2 LT PUSH2 0xB5B JUMPI INVALID JUMPDEST PUSH1 0x20 MUL ADD MLOAD MULMOD DUP11 MULMOD DUP9 DUP1 PUSH2 0xB6B JUMPI INVALID JUMPDEST DUP6 PUSH1 0x0 PUSH1 0x3 DUP2 LT PUSH2 0xB78 JUMPI INVALID JUMPDEST PUSH1 0x20 MUL ADD MLOAD PUSH1 0x3 MULMOD ADDMOD SWAP1 POP PUSH1 0x0 DUP8 DUP1 PUSH2 0xB8D JUMPI INVALID JUMPDEST DUP9 DUP1 PUSH2 0xB95 JUMPI INVALID JUMPDEST DUP5 DUP6 ADDMOD DUP10 SUB DUP10 DUP1 PUSH2 0xBA2 JUMPI INVALID JUMPDEST DUP5 DUP6 MULMOD ADDMOD SWAP1 POP PUSH1 0x0 DUP9 DUP1 PUSH2 0xBB2 JUMPI INVALID JUMPDEST DUP10 DUP1 PUSH2 0xBBA JUMPI INVALID JUMPDEST DUP11 DUP1 PUSH2 0xBC2 JUMPI INVALID JUMPDEST DUP8 PUSH1 0x1 PUSH1 0x3 DUP2 LT PUSH2 0xBCF JUMPI INVALID JUMPDEST PUSH1 0x20 MUL ADD MLOAD DUP9 PUSH1 0x1 PUSH1 0x3 DUP2 LT PUSH2 0xBE1 JUMPI INVALID JUMPDEST PUSH1 0x20 MUL ADD MLOAD MULMOD PUSH1 0x8 MULMOD DUP11 SUB DUP11 DUP1 PUSH2 0xBF4 JUMPI INVALID JUMPDEST DUP12 DUP1 PUSH2 0xBFC JUMPI INVALID JUMPDEST DUP6 DUP14 SUB DUP9 ADDMOD DUP7 MULMOD ADDMOD SWAP1 POP PUSH1 0x0 DUP10 DUP1 PUSH2 0xC10 JUMPI INVALID JUMPDEST DUP11 DUP1 PUSH2 0xC18 JUMPI INVALID JUMPDEST DUP14 DUP16 MULMOD PUSH1 0x2 MULMOD SWAP1 POP DUP3 DUP3 DUP3 SWAP9 POP SWAP9 POP SWAP9 POP POP POP POP POP POP POP JUMPDEST SWAP6 POP SWAP6 POP SWAP6 SWAP3 POP POP POP JUMP JUMPDEST PUSH1 0x0 DUP1 PUSH1 0x0 DUP1 DUP11 EQ DUP1 ISZERO PUSH2 0xC4F JUMPI POP PUSH1 0x0 DUP10 EQ JUMPDEST ISZERO PUSH2 0xC62 JUMPI DUP7 DUP7 DUP7 SWAP3 POP SWAP3 POP SWAP3 POP PUSH2 0x1169 JUMP JUMPDEST PUSH1 0x0 DUP8 EQ DUP1 ISZERO PUSH2 0xC72 JUMPI POP PUSH1 0x0 DUP7 EQ JUMPDEST ISZERO PUSH2 0xC85 JUMPI DUP10 DUP10 DUP10 SWAP3 POP SWAP3 POP SWAP3 POP PUSH2 0x1169 JUMP JUMPDEST PUSH2 0xC8D PUSH2 0x1198 JUMP JUMPDEST DUP5 DUP1 PUSH2 0xC95 JUMPI INVALID JUMPDEST DUP10 DUP11 MULMOD DUP2 PUSH1 0x0 PUSH1 0x4 DUP2 LT PUSH2 0xCA5 JUMPI INVALID JUMPDEST PUSH1 0x20 MUL ADD DUP2 DUP2 MSTORE POP POP DUP5 DUP1 PUSH2 0xCB6 JUMPI INVALID JUMPDEST DUP2 PUSH1 0x0 PUSH1 0x4 DUP2 LT PUSH2 0xCC3 JUMPI INVALID JUMPDEST PUSH1 0x20 MUL ADD MLOAD DUP11 MULMOD DUP2 PUSH1 0x1 PUSH1 0x4 DUP2 LT PUSH2 0xCD7 JUMPI INVALID JUMPDEST PUSH1 0x20 MUL ADD DUP2 DUP2 MSTORE POP POP DUP5 DUP1 PUSH2 0xCE8 JUMPI INVALID JUMPDEST DUP7 DUP8 MULMOD DUP2 PUSH1 0x2 PUSH1 0x4 DUP2 LT PUSH2 0xCF8 JUMPI INVALID JUMPDEST PUSH1 0x20 MUL ADD DUP2 DUP2 MSTORE POP POP DUP5 DUP1 PUSH2 0xD09 JUMPI INVALID JUMPDEST DUP2 PUSH1 0x2 PUSH1 0x4 DUP2 LT PUSH2 0xD16 JUMPI INVALID JUMPDEST PUSH1 0x20 MUL ADD MLOAD DUP8 MULMOD DUP2 PUSH1 0x3 PUSH1 0x4 DUP2 LT PUSH2 0xD2A JUMPI INVALID JUMPDEST PUSH1 0x20 MUL ADD DUP2 DUP2 MSTORE POP POP PUSH1 0x40 MLOAD DUP1 PUSH1 0x80 ADD PUSH1 0x40 MSTORE DUP1 DUP7 DUP1 PUSH2 0xD46 JUMPI INVALID JUMPDEST DUP4 PUSH1 0x2 PUSH1 0x4 DUP2 LT PUSH2 0xD53 JUMPI INVALID JUMPDEST PUSH1 0x20 MUL ADD MLOAD DUP15 MULMOD DUP2 MSTORE PUSH1 0x20 ADD DUP7 DUP1 PUSH2 0xD67 JUMPI INVALID JUMPDEST DUP4 PUSH1 0x3 PUSH1 0x4 DUP2 LT PUSH2 0xD74 JUMPI INVALID JUMPDEST PUSH1 0x20 MUL ADD MLOAD DUP14 MULMOD DUP2 MSTORE PUSH1 0x20 ADD DUP7 DUP1 PUSH2 0xD88 JUMPI INVALID JUMPDEST DUP4 PUSH1 0x0 PUSH1 0x4 DUP2 LT PUSH2 0xD95 JUMPI INVALID JUMPDEST PUSH1 0x20 MUL ADD MLOAD DUP12 MULMOD DUP2 MSTORE PUSH1 0x20 ADD DUP7 DUP1 PUSH2 0xDA9 JUMPI INVALID JUMPDEST DUP4 PUSH1 0x1 PUSH1 0x4 DUP2 LT PUSH2 0xDB6 JUMPI INVALID JUMPDEST PUSH1 0x20 MUL ADD MLOAD DUP11 MULMOD DUP2 MSTORE POP SWAP1 POP DUP1 PUSH1 0x2 PUSH1 0x4 DUP2 LT PUSH2 0xDCF JUMPI INVALID JUMPDEST PUSH1 0x20 MUL ADD MLOAD DUP2 PUSH1 0x0 PUSH1 0x4 DUP2 LT PUSH2 0xDE1 JUMPI INVALID JUMPDEST PUSH1 0x20 MUL ADD MLOAD EQ ISZERO PUSH2 0xEF1 JUMPI DUP1 PUSH1 0x3 PUSH1 0x4 DUP2 LT PUSH2 0xDF9 JUMPI INVALID JUMPDEST PUSH1 0x20 MUL ADD MLOAD DUP2 PUSH1 0x1 PUSH1 0x4 DUP2 LT PUSH2 0xE0B JUMPI INVALID JUMPDEST PUSH1 0x20 MUL ADD MLOAD EQ PUSH2 0xE83 JUMPI PUSH1 0x40 MLOAD PUSH32 0x8C379A000000000000000000000000000000000000000000000000000000000 DUP2 MSTORE PUSH1 0x4 ADD DUP1 DUP1 PUSH1 0x20 ADD DUP3 DUP2 SUB DUP3 MSTORE PUSH1 0xA DUP2 MSTORE PUSH1 0x20 ADD DUP1 PUSH32 0x57726F6E67206461746100000000000000000000000000000000000000000000 DUP2 MSTORE POP PUSH1 0x20 ADD SWAP2 POP POP PUSH1 0x40 MLOAD DUP1 SWAP2 SUB SWAP1 REVERT JUMPDEST PUSH1 0x40 MLOAD PUSH32 0x8C379A000000000000000000000000000000000000000000000000000000000 DUP2 MSTORE PUSH1 0x4 ADD DUP1 DUP1 PUSH1 0x20 ADD DUP3 DUP2 SUB DUP3 MSTORE PUSH1 0x12 DUP2 MSTORE PUSH1 0x20 ADD DUP1 PUSH32 0x55736520646F75626C6520696E73746561640000000000000000000000000000 DUP2 MSTORE POP PUSH1 0x20 ADD SWAP2 POP POP PUSH1 0x40 MLOAD DUP1 SWAP2 SUB SWAP1 REVERT JUMPDEST PUSH2 0xEF9 PUSH2 0x1198 JUMP JUMPDEST DUP6 DUP1 PUSH2 0xF01 JUMPI INVALID JUMPDEST DUP3 PUSH1 0x0 PUSH1 0x4 DUP2 LT PUSH2 0xF0E JUMPI INVALID JUMPDEST PUSH1 0x20 MUL ADD MLOAD DUP8 SUB DUP4 PUSH1 0x2 PUSH1 0x4 DUP2 LT PUSH2 0xF22 JUMPI INVALID JUMPDEST PUSH1 0x20 MUL ADD MLOAD ADDMOD DUP2 PUSH1 0x0 PUSH1 0x4 DUP2 LT PUSH2 0xF35 JUMPI INVALID JUMPDEST PUSH1 0x20 MUL ADD DUP2 DUP2 MSTORE POP POP DUP6 DUP1 PUSH2 0xF46 JUMPI INVALID JUMPDEST DUP3 PUSH1 0x1 PUSH1 0x4 DUP2 LT PUSH2 0xF53 JUMPI INVALID JUMPDEST PUSH1 0x20 MUL ADD MLOAD DUP8 SUB DUP4 PUSH1 0x3 PUSH1 0x4 DUP2 LT PUSH2 0xF67 JUMPI INVALID JUMPDEST PUSH1 0x20 MUL ADD MLOAD ADDMOD DUP2 PUSH1 0x1 PUSH1 0x4 DUP2 LT PUSH2 0xF7A JUMPI INVALID JUMPDEST PUSH1 0x20 MUL ADD DUP2 DUP2 MSTORE POP POP DUP6 DUP1 PUSH2 0xF8B JUMPI INVALID JUMPDEST DUP2 PUSH1 0x0 PUSH1 0x4 DUP2 LT PUSH2 0xF98 JUMPI INVALID JUMPDEST PUSH1 0x20 MUL ADD MLOAD DUP3 PUSH1 0x0 PUSH1 0x4 DUP2 LT PUSH2 0xFAA JUMPI INVALID JUMPDEST PUSH1 0x20 MUL ADD MLOAD MULMOD DUP2 PUSH1 0x2 PUSH1 0x4 DUP2 LT PUSH2 0xFBD JUMPI INVALID JUMPDEST PUSH1 0x20 MUL ADD DUP2 DUP2 MSTORE POP POP DUP6 DUP1 PUSH2 0xFCE JUMPI INVALID JUMPDEST DUP2 PUSH1 0x0 PUSH1 0x4 DUP2 LT PUSH2 0xFDB JUMPI INVALID JUMPDEST PUSH1 0x20 MUL ADD MLOAD DUP3 PUSH1 0x2 PUSH1 0x4 DUP2 LT PUSH2 0xFED JUMPI INVALID JUMPDEST PUSH1 0x20 MUL ADD MLOAD MULMOD DUP2 PUSH1 0x3 PUSH1 0x4 DUP2 LT PUSH2 0x1000 JUMPI INVALID JUMPDEST PUSH1 0x20 MUL ADD DUP2 DUP2 MSTORE POP POP PUSH1 0x0 DUP7 DUP1 PUSH2 0x1013 JUMPI INVALID JUMPDEST DUP3 PUSH1 0x3 PUSH1 0x4 DUP2 LT PUSH2 0x1020 JUMPI INVALID JUMPDEST PUSH1 0x20 MUL ADD MLOAD DUP9 SUB DUP9 DUP1 PUSH2 0x102F JUMPI INVALID JUMPDEST DUP5 PUSH1 0x1 PUSH1 0x4 DUP2 LT PUSH2 0x103C JUMPI INVALID JUMPDEST PUSH1 0x20 MUL ADD MLOAD DUP6 PUSH1 0x1 PUSH1 0x4 DUP2 LT PUSH2 0x104E JUMPI INVALID JUMPDEST PUSH1 0x20 MUL ADD MLOAD MULMOD ADDMOD SWAP1 POP DUP7 DUP1 PUSH2 0x105F JUMPI INVALID JUMPDEST DUP8 DUP1 PUSH2 0x1067 JUMPI INVALID JUMPDEST DUP9 DUP1 PUSH2 0x106F JUMPI INVALID JUMPDEST DUP5 PUSH1 0x2 PUSH1 0x4 DUP2 LT PUSH2 0x107C JUMPI INVALID JUMPDEST PUSH1 0x20 MUL ADD MLOAD DUP7 PUSH1 0x0 PUSH1 0x4 DUP2 LT PUSH2 0x108E JUMPI INVALID JUMPDEST PUSH1 0x20 MUL ADD MLOAD MULMOD PUSH1 0x2 MULMOD DUP9 SUB DUP3 ADDMOD SWAP1 POP PUSH1 0x0 DUP8 DUP1 PUSH2 0x10A7 JUMPI INVALID JUMPDEST DUP9 DUP1 PUSH2 0x10AF JUMPI INVALID JUMPDEST DUP4 DUP11 SUB DUP11 DUP1 PUSH2 0x10BA JUMPI INVALID JUMPDEST DUP7 PUSH1 0x2 PUSH1 0x4 DUP2 LT PUSH2 0x10C7 JUMPI INVALID JUMPDEST PUSH1 0x20 MUL ADD MLOAD DUP9 PUSH1 0x0 PUSH1 0x4 DUP2 LT PUSH2 0x10D9 JUMPI INVALID JUMPDEST PUSH1 0x20 MUL ADD MLOAD MULMOD ADDMOD DUP5 PUSH1 0x1 PUSH1 0x4 DUP2 LT PUSH2 0x10ED JUMPI INVALID JUMPDEST PUSH1 0x20 MUL ADD MLOAD MULMOD SWAP1 POP DUP8 DUP1 PUSH2 0x10FD JUMPI INVALID JUMPDEST DUP9 DUP1 PUSH2 0x1105 JUMPI INVALID JUMPDEST DUP5 PUSH1 0x3 PUSH1 0x4 DUP2 LT PUSH2 0x1112 JUMPI INVALID JUMPDEST PUSH1 0x20 MUL ADD MLOAD DUP7 PUSH1 0x1 PUSH1 0x4 DUP2 LT PUSH2 0x1124 JUMPI INVALID JUMPDEST PUSH1 0x20 MUL ADD MLOAD MULMOD DUP10 SUB DUP3 ADDMOD SWAP1 POP PUSH1 0x0 DUP9 DUP1 PUSH2 0x113A JUMPI INVALID JUMPDEST DUP10 DUP1 PUSH2 0x1142 JUMPI INVALID JUMPDEST DUP12 DUP16 MULMOD DUP6 PUSH1 0x0 PUSH1 0x4 DUP2 LT PUSH2 0x1152 JUMPI INVALID JUMPDEST PUSH1 0x20 MUL ADD MLOAD MULMOD SWAP1 POP DUP3 DUP3 DUP3 SWAP8 POP SWAP8 POP SWAP8 POP POP POP POP POP POP JUMPDEST SWAP8 POP SWAP8 POP SWAP8 SWAP5 POP POP POP POP POP JUMP JUMPDEST PUSH1 0x40 MLOAD DUP1 PUSH1 0x60 ADD PUSH1 0x40 MSTORE DUP1 PUSH1 0x3 SWAP1 PUSH1 0x20 DUP3 MUL DUP1 CODESIZE DUP4 CODECOPY DUP1 DUP3 ADD SWAP2 POP POP SWAP1 POP POP SWAP1 JUMP JUMPDEST PUSH1 0x40 MLOAD DUP1 PUSH1 0x80 ADD PUSH1 0x40 MSTORE DUP1 PUSH1 0x4 SWAP1 PUSH1 0x20 DUP3 MUL DUP1 CODESIZE DUP4 CODECOPY DUP1 DUP3 ADD SWAP2 POP POP SWAP1 POP POP SWAP1 JUMP INVALID LOG2 PUSH6 0x627A7A723158 KECCAK256 0x4A 0x1E MSTORE CREATE 0xB1 ADDMOD PUSH20 0x9556093080D0CC53532052821C24A92A816D17CF EXP 0xB4 DUP12 LOG3 0xF PUSH5 0x736F6C6343 STOP SDIV GT STOP ORIGIN "
		},
		"gasEstimates": {
			"creation": {
				"codeDepositCost": "918200",
				"executionCost": "980",
				"totalCost": "919180"
			},
			"external": {
				"deriveY(uint8,uint256,uint256,uint256,uint256)": "infinite",
				"ecAdd(uint256,uint256,uint256,uint256,uint256,uint256)": "infinite",
				"ecInv(uint256,uint256,uint256)": "407",
				"ecMul(uint256,uint256,uint256,uint256,uint256)": "infinite",
				"ecSub(uint256,uint256,uint256,uint256,uint256,uint256)": "infinite",
				"expMod(uint256,uint256,uint256)": "infinite",
				"invMod(uint256,uint256)": "infinite",
				"isOnCurve(uint256,uint256,uint256,uint256,uint256)": "848",
				"toAffine(uint256,uint256,uint256,uint256)": "infinite"
			},
			"internal": {
				"jacAdd(uint256,uint256,uint256,uint256,uint256,uint256,uint256)": "infinite",
				"jacDouble(uint256,uint256,uint256,uint256,uint256)": "infinite",
				"jacMul(uint256,uint256,uint256,uint256,uint256,uint256)": "infinite"
			}
		},
		"methodIdentifiers": {
			"deriveY(uint8,uint256,uint256,uint256,uint256)": "8ba5ceeb",
			"ecAdd(uint256,uint256,uint256,uint256,uint256,uint256)": "c5e45aa4",
			"ecInv(uint256,uint256,uint256)": "7559d550",
			"ecMul(uint256,uint256,uint256,uint256,uint256)": "364b62d5",
			"ecSub(uint256,uint256,uint256,uint256,uint256,uint256)": "5bf11ed3",
			"expMod(uint256,uint256,uint256)": "ad69caa5",
			"invMod(uint256,uint256)": "1b54f824",
			"isOnCurve(uint256,uint256,uint256,uint256,uint256)": "37103a67",
			"toAffine(uint256,uint256,uint256,uint256)": "c4371a1c"
		}
	},
	"abi": [
		{
			"constant": true,
			"inputs": [
				{
					"internalType": "uint8",
					"name": "_prefix",
					"type": "uint8"
				},
				{
					"internalType": "uint256",
					"name": "_x",
					"type": "uint256"
				},
				{
					"internalType": "uint256",
					"name": "_aa",
					"type": "uint256"
				},
				{
					"internalType": "uint256",
					"name": "_bb",
					"type": "uint256"
				},
				{
					"internalType": "uint256",
					"name": "_pp",
					"type": "uint256"
				}
			],
			"name": "deriveY",
			"outputs": [
				{
					"internalType": "uint256",
					"name": "",
					"type": "uint256"
				},
				{
					"internalType": "uint256",
					"name": "",
					"type": "uint256"
				}
			],
			"payable": false,
			"stateMutability": "pure",
			"type": "function"
		},
		{
			"constant": true,
			"inputs": [
				{
					"internalType": "uint256",
					"name": "_x1",
					"type": "uint256"
				},
				{
					"internalType": "uint256",
					"name": "_y1",
					"type": "uint256"
				},
				{
					"internalType": "uint256",
					"name": "_x2",
					"type": "uint256"
				},
				{
					"internalType": "uint256",
					"name": "_y2",
					"type": "uint256"
				},
				{
					"internalType": "uint256",
					"name": "_aa",
					"type": "uint256"
				},
				{
					"internalType": "uint256",
					"name": "_pp",
					"type": "uint256"
				}
			],
			"name": "ecAdd",
			"outputs": [
				{
					"internalType": "uint256",
					"name": "",
					"type": "uint256"
				},
				{
					"internalType": "uint256",
					"name": "",
					"type": "uint256"
				}
			],
			"payable": false,
			"stateMutability": "pure",
			"type": "function"
		},
		{
			"constant": true,
			"inputs": [
				{
					"internalType": "uint256",
					"name": "_x",
					"type": "uint256"
				},
				{
					"internalType": "uint256",
					"name": "_y",
					"type": "uint256"
				},
				{
					"internalType": "uint256",
					"name": "_pp",
					"type": "uint256"
				}
			],
			"name": "ecInv",
			"outputs": [
				{
					"internalType": "uint256",
					"name": "",
					"type": "uint256"
				},
				{
					"internalType": "uint256",
					"name": "",
					"type": "uint256"
				}
			],
			"payable": false,
			"stateMutability": "pure",
			"type": "function"
		},
		{
			"constant": true,
			"inputs": [
				{
					"internalType": "uint256",
					"name": "_k",
					"type": "uint256"
				},
				{
					"internalType": "uint256",
					"name": "_x",
					"type": "uint256"
				},
				{
					"internalType": "uint256",
					"name": "_y",
					"type": "uint256"
				},
				{
					"internalType": "uint256",
					"name": "_aa",
					"type": "uint256"
				},
				{
					"internalType": "uint256",
					"name": "_pp",
					"type": "uint256"
				}
			],
			"name": "ecMul",
			"outputs": [
				{
					"internalType": "uint256",
					"name": "",
					"type": "uint256"
				},
				{
					"internalType": "uint256",
					"name": "",
					"type": "uint256"
				}
			],
			"payable": false,
			"stateMutability": "pure",
			"type": "function"
		},
		{
			"constant": true,
			"inputs": [
				{
					"internalType": "uint256",
					"name": "_x1",
					"type": "uint256"
				},
				{
					"internalType": "uint256",
					"name": "_y1",
					"type": "uint256"
				},
				{
					"internalType": "uint256",
					"name": "_x2",
					"type": "uint256"
				},
				{
					"internalType": "uint256",
					"name": "_y2",
					"type": "uint256"
				},
				{
					"internalType": "uint256",
					"name": "_aa",
					"type": "uint256"
				},
				{
					"internalType": "uint256",
					"name": "_pp",
					"type": "uint256"
				}
			],
			"name": "ecSub",
			"outputs": [
				{
					"internalType": "uint256",
					"name": "",
					"type": "uint256"
				},
				{
					"internalType": "uint256",
					"name": "",
					"type": "uint256"
				}
			],
			"payable": false,
			"stateMutability": "pure",
			"type": "function"
		},
		{
			"constant": true,
			"inputs": [
				{
					"internalType": "uint256",
					"name": "_base",
					"type": "uint256"
				},
				{
					"internalType": "uint256",
					"name": "_exp",
					"type": "uint256"
				},
				{
					"internalType": "uint256",
					"name": "_pp",
					"type": "uint256"
				}
			],
			"name": "expMod",
			"outputs": [
				{
					"internalType": "uint256",
					"name": "",
					"type": "uint256"
				}
			],
			"payable": false,
			"stateMutability": "pure",
			"type": "function"
		},
		{
			"constant": true,
			"inputs": [
				{
					"internalType": "uint256",
					"name": "_x",
					"type": "uint256"
				},
				{
					"internalType": "uint256",
					"name": "_pp",
					"type": "uint256"
				}
			],
			"name": "invMod",
			"outputs": [
				{
					"internalType": "uint256",
					"name": "",
					"type": "uint256"
				}
			],
			"payable": false,
			"stateMutability": "pure",
			"type": "function"
		},
		{
			"constant": true,
			"inputs": [
				{
					"internalType": "uint256",
					"name": "_x",
					"type": "uint256"
				},
				{
					"internalType": "uint256",
					"name": "_y",
					"type": "uint256"
				},
				{
					"internalType": "uint256",
					"name": "_aa",
					"type": "uint256"
				},
				{
					"internalType": "uint256",
					"name": "_bb",
					"type": "uint256"
				},
				{
					"internalType": "uint256",
					"name": "_pp",
					"type": "uint256"
				}
			],
			"name": "isOnCurve",
			"outputs": [
				{
					"internalType": "bool",
					"name": "",
					"type": "bool"
				}
			],
			"payable": false,
			"stateMutability": "pure",
			"type": "function"
		},
		{
			"constant": true,
			"inputs": [
				{
					"internalType": "uint256",
					"name": "_x",
					"type": "uint256"
				},
				{
					"internalType": "uint256",
					"name": "_y",
					"type": "uint256"
				},
				{
					"internalType": "uint256",
					"name": "_z",
					"type": "uint256"
				},
				{
					"internalType": "uint256",
					"name": "_pp",
					"type": "uint256"
				}
			],
			"name": "toAffine",
			"outputs": [
				{
					"internalType": "uint256",
					"name": "",
					"type": "uint256"
				},
				{
					"internalType": "uint256",
					"name": "",
					"type": "uint256"
				}
			],
			"payable": false,
			"stateMutability": "pure",
			"type": "function"
		}
	]
}